:100000000C94EA050C9431060C9431060C943106DC
:100010000C9431060C9431060C9431060C94310684
:100020000C9431060C9431060C947B0D0C944E0EFE
:100030000C94551D0C9431060C9431060C94310629
:100040000C9431060C9431060C9431060C94310654
:100050000C9431060C94C91D0C9431060C94310695
:100060000C9431060C9431060C9431060C94310634
:100070000C9431060C9431060C9431060C94310624
:100080000C9431060C9431060C9431060C94310614
:100090000C9431060C9431060C9431060C94310604
:1000A0000C9431060C9431060C943106F1A1291EF2
:1000B0001F20212223242526272D2E2A462B141AE1
:1000C0000815171C180C12132F3031493904160764
:1000D000090A0B0D0E0F333400284CE1001D1B06DE
:1000E0001905111036373800E54BE0C0E20000007A
:1000F0002C000000E6E765E44E293A3B3C3D3E3FDC
:100100004041424344450101010152010101010105
:10011000010101010101470150514F01010101019C
:10012000010101000148010001010101010101017A
:10013000010100014A01010100000001000000016D
:100140000101014D0A002530325800626F756E635F
:1001500065213A20004B6579626F61726420737487
:100160006172742E0A0055534220636F6E66696790
:10017000757265642E0A000D0A696E69740A005B67
:10018000445D005B435D002003740068006500204F
:10019000006700720061006E0064006D0061007312
:1001A00000740065007200000016036200720061B6
:1001B0000074007A0077006F00720074006800001D
:1001C000000403090409028D00050100A03209049E
:1001D000000001030101000921110100012240007A
:1001E0000705810308000A09040100010301020058
:1001F000092111010001224D000705820308000AB0
:10020000090402000103000000092111010001227C
:1002100036000705830308000A09040300020300EF
:10022000000009211101000122220007058403209A
:100230000001070504032000010904040001030074
:100240000000092111010001223900070585032062
:1002500000011201100100000008EDFE60600100C5
:100260000102000105010906A101050719E029E7BE
:100270001500250195087501810205081901290558
:100280009505750191029501750391010507190006
:1002900029F71500250195F875018102C00631FF87
:1002A0000974A1010975150026FF009520750881C4
:1002B000020976150026FF00952075089102C005F9
:1002C000010980A101850216810026B7001A81006C
:1002D0002AB700751095018100C0050C0901A10124
:1002E0008503160100269C021A01002A9C02751043
:1002F00095018100C005010902A1010901A10005C4
:100300000919012905150025019505750181029539
:1003100001750381010501093009311581257F959A
:10032000027508810609381581257F9501750881B8
:1003300006050C0A38021581257F9501750881068E
:10034000C0C005010906A101050719E029E715004C
:10035000250195087501810295017508810105083F
:100360001901290595057501910295017503910102
:100370000507190029FF150026FF0095067508815D
:1003800000C0636F6E73756D65723A202530345806
:100390000A0073797374656D3A20253034580A0069
:1003A0000A002530325820006B6579626F617264F3
:1003B0003A20004C45443A20253032580A00253076
:1003C00032583A20253031366225730A00722F6385
:1003D00020303132333435363738394142434445A1
:1003E000460A0064656C5F6B65795F6269743A20E8
:1003F00063616E27742064656C3A20253032580A98
:10040000006164645F6B65795F6269743A2063615F
:100410006E2774206164643A20253032580A0064E3
:100420006F6E652E0A00626F6F746D61676963207D
:100430007363616E3A202E2E2E2000290A00257546
:10044000002F002575005D2800256400200025642C
:1004500000200025640020002564007C0025303247
:1004600058006D6F7573656B6579205B62746E7C87
:10047000782079207620685D287265702F61636C22
:10048000293A205B006D6B5F776865656C5F746906
:100490006D655F746F5F6D6178203D2025640A0093
:1004A0006D6B5F776865656C5F6D61785F737065B4
:1004B0006564203D2025640A006D6B5F74696D657D
:1004C0005F746F5F6D6178203D2025640A006D6B5D
:1004D0005F6D61785F7370656564203D2025640AF7
:1004E000006D6B5F696E74657276616C203D2025CE
:1004F000640A006D6B5F64656C6179203D20256442
:100500000A006D6B5F776865656C5F74696D655F28
:10051000746F5F6D6178203D2025640A006D6B5F0C
:10052000776865656C5F6D61785F73706565642081
:100530003D2025640A006D6B5F74696D655F746FA3
:100540005F6D6178203D2025640A006D6B5F6D61F1
:10055000785F7370656564203D2025640A006D6BCB
:100560005F696E74657276616C203D2025640A00B7
:100570006D6B5F64656C6179203D2025640A000A1B
:1005800000257500363A20776865656C5F74696D83
:10059000655F746F5F6D61783A20000A0025750011
:1005A000353A20776865656C5F6D61785F7370655B
:1005B00065643A20000A00257500343A2074696D9C
:1005C000655F746F5F6D61783A20000A00257500E1
:1005D000333A206D61785F73706565643A20000A74
:1005E00000257500323A20696E74657276616C2858
:1005F0006D73293A20000A00257500313A206465A0
:100600006C6179282A31306D73293A20000A092D4E
:100610002056616C756573202D0A004D3E004D25F6
:10062000643E20003F007365742064656661756CEC
:10063000740A00433E200077686572652064656C2B
:1006400074613A20637572736F723D25642C207754
:100650006865656C3D25640A53656520687474702F
:100660003A2F2F656E2E77696B6970656469612E0C
:100670006F72672F77696B692F4D6F7573655F6B4D
:100680006579730A000A092D204D6F7573656B65D6
:1006900079202D0A4553432F713A09717569740AFF
:1006A000313A0964656C6179282A31306D73290A01
:1006B000323A09696E74657276616C286D73290A25
:1006C000333A096D61785F73706565640A343A097D
:1006D00074696D655F746F5F6D61780A353A09778B
:1006E0006865656C5F6D61785F73706565640A3617
:1006F0003A09776865656C5F74696D655F746F5FF3
:100700006D61780A0A703A097072696E74207661B8
:100710006C7565730A643A09736574206465666173
:10072000756C74730A75703A092B310A646F776EB1
:100730003A092D310A706775703A092B31300A7009
:1007400067646F776E3A092D31300A0A73706565F8
:1007500064203D2064656C7461202A206D61785F9F
:100760007370656564202A20287265706561742045
:100770002F2074696D655F746F5F6D6178290A0061
:100780003F004D3E2000433E20004C25640A000AF5
:10079000092D20436F6E736F6C65202D0A455343FE
:1007A0002F713A09717569740A6D3A096D6F757325
:1007B000656B65790A000A092D204D616769632020
:1007C0002D0A643A0964656275670A783A096465B6
:1007D000627567206D61747269780A6B3A096465A5
:1007E000627567206B6579626F6172640A6D3A09A0
:1007F0006465627567206D6F7573650A763A097670
:10080000657273696F6E0A733A09737461747573F4
:100810000A633A09636F6E736F6C65206D6F646570
:100820000A302D343A096C61796572302D342846CE
:1008300031302D4634290A506175733A09626F6F61
:10084000746C6F616465720A653A09656570726FF0
:100850006D0A6E3A094E4B524F0A000A0025750088
:100860002E6E6B726F3A20000A002575002E73778A
:1008700061705F6261636B736C6173685F62616317
:100880006B73706163653A20000A002575002E7352
:100890007761705F67726176655F6573633A2000A8
:1008A0000A002575002E6E6F5F6775693A20000A91
:1008B000002575002E737761705F72616C745F72D2
:1008C0006775693A20000A002575002E73776170FC
:1008D0005F6C616C745F6C6775693A20000A002573
:1008E00075002E636170736C6F636B5F746F5F6311
:1008F0006F6E74726F6C3A20000A002575002E73BB
:100900007761705F636F6E74726F6C5F6361707339
:100910006C6F636B3A20000A0025303258006B651B
:10092000796D61705F636F6E6669672E7261773A89
:1009300020000A002575002E6D6F7573653A200042
:100940000A002575002E6B6579626F6172643A202A
:10095000000A002575002E6D61747269783A2000D6
:100960000A002575002E656E61626C653A20000AEA
:1009700000253032580064656275675F636F6E668C
:1009800069672E7261773A20000A00257500646558
:100990006661756C745F6C617965723A20003F0026
:1009A0004E4B524F3A206F66660A004E4B524F3AFA
:1009B000206F6E0A0074696D65725F7265616433E1
:1009C0003228293A202530346C580A006B65796248
:1009D0006F6172645F6E6B726F3A2025580A006B0C
:1009E0006579626F6172645F69646C653A2025584D
:1009F0000A006B6579626F6172645F70726F746F09
:100A0000636F6C3A2025580A00686F73745F6B65DA
:100A100079626F6172645F6C65647328293A20257E
:100A2000580A000A092D20537461747573202D0A29
:100A3000004743433A20362E332E30204156522D64
:100A40004C4942433A20322E302E30204156525FDC
:100A5000415243483A20617672350A004F5054495A
:100A60004F4E533A204C55464120424F4F544D4132
:100A7000474943204D4F5553454B45592045585400
:100A800052414B455920434F4E534F4C4520434F05
:100A90004D4D414E44204E4B524F20343039360A92
:100AA000004255494C443A20756E6B6E6F776E204C
:100AB0002831363A32363A3531204D61722031359F
:100AC0002032303137290A005649443A20307846DE
:100AD00045454428627261747A776F727468292080
:100AE0005049443A203078363036302874686520D2
:100AF0006772616E646D6173746572292056455228
:100B00003A203078303030310A00444553433A209F
:100B1000742E6D2E6B2E206B6579626F617264206E
:100B20006669726D7761726520666F722036302556
:100B3000207468696E670A000A092D205665727371
:100B4000696F6E202D0A000A6D6F7573653A206F0C
:100B500066660A000A6D6F7573653A206F6E0A004B
:100B60000A6B6579626F6172643A206F66660A008B
:100B70000A6B6579626F6172643A206F6E0A000ACF
:100B80006D61747269783A206F66660A000A6D6159
:100B9000747269783A206F6E0A000A64656275673C
:100BA0003A206F6E0A000A64656275673A206F66C4
:100BB000660A000A0A626F6F746C6F616465722E58
:100BC0002E2E2000433E20006565636F6E666967C8
:100BD0003A0A000011241FBECFEFDAE0DEBFCDBF1E
:100BE00004B603FE27C08091090290910A02A091E9
:100BF0000B02B0910C028730904BA740B04BD1F460
:100C00001092090210920A0210920B0210920C022A
:100C100014BE84B7877F84BF0FB6F894A8958091DF
:100C20006000886180936000109260000FBEE0E079
:100C3000F8E3099511E0A0E0B1E0E8EBF4E502C0CB
:100C400005900D92AA33B107D9F722E0AAE3B1E0EB
:100C500001C01D92A930B207E1F70E94B40A0C94BA
:100C60005A2A0C940000FF93EF93E0913A01F0911F
:100C70003B01309709F00995EF91FF910895FC0130
:100C80008591803011F0EFDFFBCF0895FF27E0E280
:100C900030E247FF0CC0419597FF09C0EDE2609537
:100CA000709580959095611D711D811D911D27FF87
:100CB00002C0219530E350E2AA27660F771F881FF4
:100CC000991FAA1FA41710F0A41B63955A95A9F7A2
:100CD000AA3008F0A95FA05DAF93F3956115710587
:100CE0008105910541F7ED3211F4EF93F395F21779
:100CF00018F43F93F395FBCF8F91B5DFFA95E1F7A9
:100D00000895E991F9918591803021F0853219F0AB
:100D1000AADFF9CF089520E0E89455915532C1F348
:100D2000503311F4689455915A3348F4505390F36A
:100D3000220F022E220F220F200D250FF4CF0EF4CA
:100D4000219589919991533619F3533729F15335E8
:100D500059F1BC0188279927E8945C3621F48991E0
:100D6000999168945591543639F446EF7EF077FFA7
:100D70000DC08FEF9FEF0AC055374AE039F0583564
:100D800040E121F0523642E009F00895FF93EF93DD
:100D90007DDFEF91FF91B7CFFF93EF93FC0181913E
:100DA0008030B9F360DFFBCFFF93EF9368DFF1CFC3
:100DB000DF93CF93CDB7DEB72596A3DFCF91DF9139
:100DC000089580B38C7880BB81B38C7881BB089503
:100DD0000E94E10687988F9A8AB180778AB98BB191
:100DE0008F688BB93E98469A84B114B885B18FEF5D
:100DF00085B9E6E4F1E0ACE3B1E0119211921D9205
:100E00001D9281E0E035F807C1F70895FF920F9336
:100E10001F93CF93DF930CE311E0E801F12C82E004
:100E2000F81609F4DBC08F1508F4CCC091E0F91670
:100E300009F4D1C0869A8E9880EA8A95F1F729B193
:100E4000022E000C330B20953095832F881F8827A6
:100E5000881F90E01899C8C022E030E0822B932BC5
:100E60001999C5C024E030E0822B932B1A99C2C097
:100E700028E030E0822B932B1B99BFC020E130E0AB
:100E8000822B932B23B1022E000C330B209530952F
:100E90002227330F221F332775E0220F331F7A9545
:100EA000E1F7822B932B4899ABC020E430E0822BF2
:100EB000932B4999A8C020E830E0822B932B4A99C4
:100EC000A5C020E031E0822B932B4B99A2C020E0FB
:100ED00032E0822B932B36999FC020E034E0822BA6
:100EE000932B1C999CC020E038E0822B932B1D99FA
:100EF00099C020E030E1822B932B1E9996C020E010
:100F000030E2822B932B2FB1022E000C330B209555
:100F100030952227330F221F332730E4239F302DB3
:100F200022271124822B932B2881398128173907F6
:100F300059F19983888380910001882311F1809170
:100F4000EA0180FF04C08BE491E00E943F0680919B
:100F5000EA0180FF0EC0809100011F928F9386E40A
:100F600091E09F938F930E94D8060F900F900F905F
:100F70000F908091EA0180FF04C084E491E00E9418
:100F80003F0685E0809300010E94E106F3942296DB
:100F900095E0F91244CF80910001882361F08150DF
:100FA00080930001882309F443C0AFE9BFE01197A3
:100FB000F1F700C0000081E0DF91CF911F910F9108
:100FC000FF900895A3E0FA1661F0B4E0FB1232CF6F
:100FD000809A889831CF859A8D982ECF849A8C9854
:100FE0002BCF819A899828CF20E030E037CF20E0BE
:100FF00030E03ACF20E030E03DCF20E030E040CF9D
:1010000020E030E054CF20E030E057CF20E030E067
:101010005ACF20E030E05DCF20E030E060CF20E02C
:1010200030E063CF20E030E066CF20E030E069CFF1
:10103000E6E4F1E086E491E0D8012D913D918D0147
:10104000219331938A179B07B9F7B5CFE82FF0E0CA
:10105000EE0FFF1FEA5BFE4F808191810895089596
:101060008091740108959FB7F894109253019FBF27
:101070009091FF01943009F049C02091E9002F7050
:101080009091EC0090FD30C090E0922B24E02093F2
:10109000E9002091EB0020FF36C02091EE0027FFF1
:1010A00032C020915001222321F02091E80025FF39
:1010B0002AC01092500126E03091E80035FF16C09A
:1010C0008093F1008091E80085FD29C08091E800BF
:1010D00080FFFCCF8091E8008E778093E8009F70BE
:1010E0009093E90080E0089590E8CFCF3091FF0120
:1010F000343049F43091EB0035FD05C0215041F406
:1011000081E0809350019F709093E9008FEF0895E4
:10111000EFE9FFE03197F1F700C00000CDCF8FB7C6
:10112000F89421E0209353018FBFD9CFCF93DF9361
:1011300000D01F92CDB7DEB79C018091FF018430B3
:1011400019F593E099833B832A839093E9008FEF0D
:101150009091E800815095FD06C095ED9A95F1F7C4
:1011600000008111F5CF8091E80085FF0DC040E0BF
:1011700050E063E070E0CE0101960E94730B809115
:10118000E8008E778093E8000F900F900F90DF912A
:10119000CF910895CF93DF9300D01F92CDB7DEB7E4
:1011A0002091FF01243021F522E029839B838A834B
:1011B00083E08093E9008FEF9091E800815095FDE6
:1011C00006C095ED9A95F1F700008111F5CF809159
:1011D000E80085FF0DC040E050E063E070E0CE0124
:1011E00001960E94730B8091E8008E778093E8004F
:1011F0000F900F900F90DF91CF9108959C018091F7
:10120000FF018430F9F482E08093E9009FEF809140
:10121000E800915085FD06C085ED8A95F1F7000044
:101220009111F5CF8091E80085FF0CC040E050E0BF
:1012300065E070E0C9010E94730B8091E8008E7731
:101240008093E8000895CF93DF93EC018091FF0134
:10125000843079F580910B01882371F180910C0124
:10126000882351F185E08093E9008FEF9091E800A9
:10127000815095FD06C095E19A95F1F70000811126
:10128000F5CF8091E80085FF14C040E050E060E2B7
:1012900070E0CE010E94730B8091E8008E778093FE
:1012A000E80080E2FE01A4E5B1E001900D928A958C
:1012B000E1F7DF91CF91089581E08093E9008FEF0E
:1012C0009091E800815095FD06C095ED9A95F1F753
:1012D00000008111F5CF8091E80085FFEACF40E062
:1012E00050E068E070E0D5CF83E891E00E943F06CF
:1012F0008091FE01811109C00E94000D0E945D0DC8
:101300008091E20084608093E20008958FE791E08D
:101310000E943F061092FE01089508952091510108
:101320002F5F822F62E30E94EF29992319F0209307
:101330005101089510925101809153018823E9F0E1
:101340008091FF018430B9F49091E9009F70809101
:10135000EC0080FD13C080E0892B94E09093E900BD
:101360009091EB0090FF04C09091EE0097FD0AC0B1
:101370008F708093E90010925301089580E8ECCFBC
:101380001092F1009091E80095FDFACF9091E8005D
:1013900090FFEECF9091E8009E779093E800E8CF21
:1013A00042E061EC81E00E947D0C42E061EC82E071
:1013B0000E947D0C42E061EC83E00E947D0C42E2E1
:1013C00061EC84E00E947D0C42E261EC85E00C94CB
:1013D0007D0C80910102833009F455C030F48130D6
:1013E00071F1823009F491C008958A3009F47DC00A
:1013F0008B3009F463C0893009F044C08091000249
:10140000813209F03FC0809104029091050200975B
:1014100011F00497B9F58091E800877F8093E80088
:101420008091E80082FF2AC08091F10080937401CE
:101430008091E8008B778093E8000C94B20C809147
:101440000002813AF9F48091E800877F8093E800F8
:101450008091040290910502892B61F460E284E599
:1014600091E070E00E94C20B8091E8008B7780933E
:10147000E800089560E080E090E0F3CF8091FF0104
:101480008111CECF089580910002813AD9F78091E1
:10149000040290910502892BA9F78091E800877FCB
:1014A0008093E8008091E80080FFFCCF80910B01E1
:1014B0008093F1008091E8008E77BDCF809100028B
:1014C000813201F78091040290910502892BD1F6B7
:1014D0008091E800877F8093E8000E94B20C8091A1
:1014E000020280930B010C948216809100028132DB
:1014F00049F68091E800877F8093E8000E94B20C53
:101500008091030280937501089580910002813AD1
:1015100009F0B8CF8091E800877F8093E800809140
:10152000E80080FFFCCF80917501C2CF08950C9434
:10153000960A80917401809352011092740180E0A8
:101540000E942F080E9479110C9482160C94990A1B
:101550000E94131D8091FD01882329F00E943C1DEB
:1015600081110C945D0B089584B7877F84BF0FB6FB
:10157000F894A89580916000886180936000109233
:1015800060000FBE90E080E80FB6F8948093610091
:10159000909361000FBE83E398E00E94CE1C87E722
:1015A00091E00E943F060E94970A0E949F100E94AD
:1015B000000D0E945D0D8091E20084608093E20046
:1015C00078948091FF018430E1F786E691E00E94F3
:1015D0003F060E94A11081E091E00E94E10F85E5A5
:1015E00091E00E943F060E94960A8091FF0185309B
:1015F00019F00E94A710F9CF0E94A80AF6CF0E9406
:10160000511D809152018093740108950C94FF0A3A
:10161000292F33272330310579F158F42130310552
:10162000F1F02230310519F180E090E020E030E067
:101630001AC02132310599F122323105A9F76530FE
:1016400098F770E0FB01EE0FFF1FE65EFE4F208172
:1016500031816B5E7E4FFB01808190E004C082E1AE
:1016600090E022E532E0FA013183208308958DE88D
:1016700090E025EC31E0F7CF99278130910561F0BA
:1016800028F0029789F6E7E8F1E002C0E1ECF1E02A
:10169000849190E09F01E7CFE9EAF1E0F9CF65306E
:1016A00008F0C2CFE62FF0E0EE0FFF1FEC5DFE4F1B
:1016B0002081318189E090E0D6CF80E189BD82E14F
:1016C00089BD09B400FEFDCF8091D8008F7D809345
:1016D000D8008091E00082608093E0008091E0007B
:1016E00081FDFCCF0895AF92BF92DF92EF92FF92FF
:1016F0000F931F93CF93DF93EC018B017A010E942C
:10170000D10CD82E811124C0E114F10439F0F70175
:1017100080819181081B190BC80FD91FA12CB12CF6
:1017200001151105A9F08091E80085FD22C0809186
:10173000E8008E778093E800E114F104A1F0F7014E
:1017400080819181A80EB91EB182A08285E0D82E39
:101750008D2DDF91CF911F910F91FF90EF90DF9032
:10176000BF90AF9008950E94D10C8823C9F2D82E63
:10177000EFCF89918093F10001501109FFEFAF1A6B
:10178000BF0ACECF209106023091070226173707F5
:10179000A8F06115710529F42091E8002E772093B7
:1017A000E800FC0120E06115710551F4211108C029
:1017B0008091E80082FF33C080E00895B901F1CF45
:1017C0008091FF018823B9F18530B9F18091E8005B
:1017D00083FD2FC08091E80082FDEACF8091E80070
:1017E00080FFE1CF2091F3008091F20090E0922BF6
:1017F0006115710519F08830910550F021E00897C6
:1018000009F020E08091E8008E778093E800CBCF4C
:1018100021912093F100615071090196E9CF8091E7
:10182000FF01882341F0853041F08091E80083FF7B
:10183000BFCF81E0089582E0089583E0089520916C
:1018400006023091070226173707A8F061157105C7
:1018500029F42091E8002E772093E800FC0120E095
:101860006115710551F4211108C08091E80082FFD3
:1018700034C080E00895B901F1CF8091FF01882341
:10188000C1F18530C1F18091E80083FD30C08091C5
:10189000E80082FDEACF8091E80080FFE1CF20914F
:1018A000F3008091F20090E0922B6115710519F020
:1018B0008830910550F021E0089709F020E08091F0
:1018C000E8008E778093E800CBCF24912093F1003D
:1018D0003196615071090196E8CF8091FF0188230C
:1018E00041F0853041F08091E80083FFBECF81E078
:1018F000089582E0089583E00895982F973028F0A6
:101900008F708093E90081E008959093E900981723
:1019100051F07091EC002091ED005091F00021FD0C
:1019200006C09F5FEBCF242F762F50E0F8CF309189
:10193000EB003E7F3093EB003091ED003D7F309324
:10194000ED003091EB0031603093EB007093EC00D0
:101950002093ED005093F0002091EE0027FDE1CFA1
:1019600080E008958091000287FF13C08091E80015
:1019700082FF06C08091E8008B778093E80004C066
:101980008091FF018111F2CF08958091FF0188239A
:10199000D9F38091E80080FFF8CF8091E8008E773E
:1019A000ECCF2091E4003091E50085E69091EC00C9
:1019B00090FD20C09091E80092FD20C09091FF0121
:1019C000992391F0953091F09091EB0095FD10C026
:1019D0004091E4005091E5004217530739F38150DC
:1019E0009A0121F784E0089582E0089583E0089544
:1019F00081E008959091E80090FFE0CF80E00895A5
:101A00000E946E0D0E94760DE0EEF0E08081816014
:101A10008083E8EDF0E080818F77808319BCA7EDAB
:101A2000B0E08C918E7F8C9380818F7E808310922A
:101A3000FE0108950F931F93CF93DF930E946E0DC5
:101A40000E94760DC8EDD0E088818F7788838881E9
:101A50008068888388818F7D888319BC1092FF01FC
:101A60001092FB011092FD011092FC0100EE10E0BB
:101A7000F80180818B7F808388818160888342E048
:101A800060E080E00E947D0CE1EEF0E080818E7FDE
:101A90008083E2EEF0E080818160808380818860D5
:101AA0008083F80180818E7F808388818061888334
:101AB000DF91CF911F910F910895E8EDF0E08081C3
:101AC0008F7E8083E7EDF0E080818160808384E019
:101AD00082BF81E08093FE010C941A0DE8EDF0E0E6
:101AE00080818E7F80831092E20008951092DA0048
:101AF0001092E10008951F920F920FB60F921124D9
:101B00002F933F934F935F936F937F938F939F9305
:101B1000AF93BF93EF93FF938091E10082FF0BC0DF
:101B20008091E20082FF07C08091E1008B7F80936B
:101B3000E1000E948E098091DA0080FF19C0809137
:101B4000D80080FF15C08091DA008E7F8093DA0084
:101B50008091D90080FF94C080E189BD82E189BD78
:101B600009B400FEFDCF81E08093FF010E9474095B
:101B70008091E10080FF19C08091E20080FF15C0D4
:101B80008091E2008E7F8093E2008091E20080618C
:101B90008093E2008091D80080628093D80019BCC5
:101BA00085E08093FF010E94A60A8091E10084FFF6
:101BB00029C08091E20084FF25C080E189BD82E1D7
:101BC00089BD09B400FEFDCF8091D8008F7D809340
:101BD000D8008091E1008F7E8093E1008091E20047
:101BE0008F7E8093E2008091E20081608093E2002A
:101BF0008091FB01882309F449C084E08093FF01B0
:101C00000E94060B8091E10083FF29C08091E200D1
:101C100083FF25C08091E100877F8093E10082E00F
:101C20008093FF011092FB018091E1008E7F8093F1
:101C3000E1008091E2008E7F8093E2008091E200DB
:101C400080618093E20042E060E080E00E947D0CD1
:101C50008091F00088608093F0000E948D09FF91D0
:101C6000EF91BF91AF919F918F917F916F915F9114
:101C70004F913F912F910F900FBE0F901F9018958D
:101C800019BC1092FF010E94860972CF8091E30077
:101C900087FD02C081E0B2CF83E0B0CF1F920F92E8
:101CA0000FB60F9211242F933F934F935F936F932F
:101CB0007F938F939F93AF93BF93CF93EF93FF93B4
:101CC000C091E900CF708091EC001092E900809102
:101CD000F000877F8093F00078940E948A0E109223
:101CE000E9008091F00088608093F000C093E900E3
:101CF000FF91EF91CF91BF91AF919F918F917F9184
:101D00006F915F914F913F912F910F900FBE0F9068
:101D10001F9018951F93CF93DF93CDB7DEB7AA9787
:101D20000FB6F894DEBF0FBECDBFE0E0F2E08091C9
:101D3000F100819322E0E830F207C9F70E94E90937
:101D40008091E80083FF44C08091000290910102DD
:101D5000492F50E04A30510508F03AC0FA01ED54DD
:101D6000F14F0C940F2ABD0EE10EE80EE10EE80EC5
:101D70003C0F5F0FE80EB40FC10F803879F0823846
:101D800039F5809104028F708093E9008091EB0017
:101D900085FB882780F91092E90006C08091FC013C
:101DA0009091FD01911182609091E800977F90934E
:101DB000E8008093F1001092F1008091E8008E77A6
:101DC0002DC0282F2D7F21F48823D1F0823059F1A6
:101DD0008091E80083FF0AC08091E800877F8093AC
:101DE000E8008091EB0080628093EB00AA960FB62A
:101DF000F894DEBF0FBECDBFDF91CF911F91089544
:101E000080910202813021F7933009F080E08093C5
:101E1000FD011092E9008091E800877F8093E8003F
:101E20000E94B20CD5CF809102028111F2CF809135
:101E300004028F7069F28093E9002091EB0020FF8B
:101E4000E8CF933031F48091EB0080628093EB0017
:101E5000E0CF9091EB0090619093EB0021E030E0B7
:101E600001C0220F8A95EAF72093EA001092EA0057
:101E70008091EB008860EACF8111AACF1091020215
:101E80001F778091E3008078812B8093E30080911D
:101E9000E800877F8093E8000E94B20C8091E80000
:101EA00080FFFCCF8091E30080688093E3001111F4
:101EB00004C082E08093FF018BCF83E0FBCF80588A
:101EC000823008F085CF80910202909103028C3D10
:101ED00023E09207A1F583E08A838AE289834FB7E2
:101EE000F894DE01139620E03EE051E2E32FF0E0AB
:101EF00050935700E49120FF03C0E295EF703F5FDD
:101F0000EF708E2F90E0EA30C0F0C7968D939D93CE
:101F10002F5F243159F74FBF8091E800877F80936E
:101F2000E8006AE270E0CE0101960E94C20B809147
:101F3000E8008B778093E8004BCFC096E7CFAE01E7
:101F40004F5F5F4F609104020E94080BBC01892B18
:101F500009F43ECF9091E800977F9093E800898143
:101F60009A810E941F0CE3CF803809F031CF809115
:101F7000E800877F8093E8008091FB018093F10067
:101F80001CCF811125CF90910202923008F020CF12
:101F90008091E800877F8093E8009093FB010E9486
:101FA000B20C8091FB01882311F084E005C0809180
:101FB000E30087FDFACF81E08093FF010E94D00902
:101FC00007CF90937B0180937A010895E0917A0185
:101FD000F0917B01309721F00190F081E02D099480
:101FE00080E00895EF92FF921F93CF93DF93F82E36
:101FF000192FE0917A01F0917B013097A9F10280CD
:10200000F381E02D09958091EA0182FF2DC080FFC8
:1020100004C088EA93E00E943F06CF2DD12F10E242
:1020200082EAE82E83E0F82E8091EA0180FF0BC05F
:1020300088811F928F93FF92EF920E94D8060F9093
:102040000F900F900F90115021961111EDCF8091AC
:10205000EA0180FF09C080EA93E0DF91CF911F91F0
:10206000FF90EF900C943F06DF91CF911F91FF906E
:10207000EF900895E0917A01F0917B01309721F083
:102080000480F581E02D09940895CF93DF93EC014E
:1020900080917801909179018C179D0701F1D0937F
:1020A0007901C0937801E0917A01F0917B0130973A
:1020B000B1F00680F781E02DCE0109958091EA010B
:1020C0008570853061F4DF93CF9382E993E09F932D
:1020D0008F930E94D8060F900F900F900F90DF9172
:1020E000CF910895CF93DF93EC0180917601909189
:1020F00077018C179D0701F1D0937701C09376018A
:10210000E0917A01F0917B013097B1F00084F18584
:10211000E02DCE0109958091EA018570853061F44A
:10212000DF93CF9382E893E09F938F930E94D8062A
:102130000F900F900F900F90DF91CF9108950C9416
:102140007A110E947E1D0E94E8060C94831F5F9204
:102150006F927F928F929F92AF92BF92CF92DF92B7
:10216000EF92FF920F931F93CF93DF9300D000D095
:102170001F92CDB7DEB70E9406079DE7A92E91E01A
:10218000B92E00E010E088248394912C502E802FEB
:102190000E9426087C01F501C190D1905F018C1549
:1021A0009D05B1F40F5F1F4F0530110579F78FEFD3
:1021B00089838A831B820E94871D8160782F9D837B
:1021C0008C8349815A816B818D810E94B1113DC000
:1021D0008091EA0181FD0E947B1180E090E0CE2495
:1021E000DF243401082E02C0660C771C0A94E2F743
:1021F000960126213721232B09F45EC089835A8258
:10220000E620F72081E0EF2809F480E08B830E942C
:10221000871D8160782F9D838C8349815A816B81D2
:102220008D810E94B11149815A816B817C818D81A0
:102230000E94FF1C000F111FF801E358FE4F808120
:10224000918168267926718260820E94FE1C0E941C
:102250000A230E94E60F90917C01891799F10E9450
:10226000E60F80937C019091EA019570953061F4BE
:102270001F928F9383EB93E09F938F930E94D806D6
:102280000F900F900F900F9080917C010F900F9006
:102290000F900F900F90DF91CF911F910F91FF90B2
:1022A000EF90DF90CF90BF90AF909F908F907F90F6
:1022B0006F905F900C94101D01968F30910509F07E
:1022C00090CF70CF0F900F900F900F900F90DF91E5
:1022D000CF911F910F91FF90EF90DF90CF90BF9023
:1022E000AF909F908F907F906F905F9008950C9427
:1022F0002F0808950895EF92FF920F931F93CF93A5
:10230000DF938DEC93E00E943F06C0E0D0E08EE2C8
:10231000E82E81E0F82E0EEB13E08C2F0E942608A9
:102320000E94EB1CFF92EF929F938F93DF93CF93CA
:102330001F930F930E94D80621968DB79EB70896DB
:102340000FB6F8949EBF0FBE8DBFC530D10529F7DB
:10235000DF91CF911F910F91FF90EF900895089515
:102360000895CF93DF93CDB7DEB72B970FB6F894D0
:10237000DEBF0FBECDBF942F4F83252F58876987AF
:102380007A878B874A855B85452B39F02F3F19F477
:1023900081E09F3F19F080E001C081E080FD07C02F
:1023A0004F81588569857A858B850E94FF1CDE01E7
:1023B000119686E0FD0111928A95E9F785E0FE010C
:1023C000379601900D928A95E1F749815A816B8188
:1023D0007C818D819E810E9446192B960FB6F894C0
:1023E000DEBF0FBECDBFDF91CF910895CF93C82F31
:1023F000882309F4FBC08238C1F40E94E60F81FDF6
:10240000F5C089E30E94CD1B0E94A81C2FEF81EE2E
:1024100094E0215080409040E1F700C0000089E343
:102420000E941A1CCF910C94A81C8338A1F40E941E
:10243000E60F80FDDBC083E50E94CD1B0E94A81C37
:102440002FEF81EE94E0215080409040E1F700C0F2
:10245000000083E5E5CF8438A1F40E94E60F82FDF9
:10246000C5C087E40E94CD1B0E94A81C2FEF81EEFF
:1024700094E0215080409040E1F700C0000087E4E4
:10248000CFCF8CEF8C0F813A48F48C2F0E947327AA
:102490008111ACC08C2F0E94CD1BC4CF80E28C0F69
:1024A000883048F4C77081E001C0880FCA95EAF708
:1024B0000E946D1CB7CF8BE58C0F833078F4C53A42
:1024C00039F0C63A41F083E890E0CF910C94451082
:1024D00081E890E0FACF82E890E0F7CF88E58C0FB2
:1024E000853108F083C0C83A09F441C0C93A09F4FB
:1024F00041C0CA3A09F441C0CB3A09F441C0CC3AD0
:1025000009F441C0CD3A09F441C0CE3A09F441C0C2
:10251000CF3A09F441C0C13B09F441C0C03B09F4C2
:1025200041C0C23B09F441C0C33B09F441C0C43BB4
:1025300009F441C0C53B09F441C0C63B09F441C0A0
:10254000C73B09F441C0C83B09F441C0C93B09F489
:1025500041C0CA3B09F441C0CB3B09F441C0CC3B6C
:1025600009F441C080E090E0CF910C94721082EEAB
:1025700090E0FACF89EE90E0F7CF8AEE90E0F4CFCA
:1025800085EB90E0F1CF86EB90E0EECF83EB90E02F
:10259000EBCF84EB90E0E8CF87EB90E0E5CF8CECDD
:1025A00090E0E2CF8DEC90E0DFCF83E891E0DCCFEC
:1025B0008AE891E0D9CF82E991E0D6CF84E991E031
:1025C000D3CF81E292E0D0CF83E292E0CDCF84E21C
:1025D00092E0CACF85E292E0C7CF86E292E0C4CF14
:1025E00087E292E0C1CF8AE292E0BECFCF91089518
:1025F000882309F466C08238B9F40E94E60F81FF8F
:1026000060C089E30E94CD1B0E94A81C2FEF81EEC1
:1026100094E0215080409040E1F700C0000089E341
:102620000E941A1C0C94A81C8338A1F40E94E60F87
:1026300080FF47C083E50E94CD1B0E94A81C2FEF9E
:1026400081EE94E0215080409040E1F700C000000E
:1026500083E5E6CF8438A1F40E94E60F82FF31C003
:1026600087E40E94CD1B0E94A81C2FEF81EE94E00E
:10267000215080409040E1F700C0000087E4D0CFB7
:102680009CEF980F913A60F290E2980F983050F4D6
:10269000877091E001C0990F8A95EAF7892F0E940F
:1026A000731CC0CF9BE5980F933020F480E090E03E
:1026B0000C944510885A853120F480E090E00C9409
:1026C00072100895882321F00E946D1C0C94A81CA0
:1026D0000895882321F00E94731C0C94A81C08956F
:1026E000CF92DF92EF92FF920F931F93CF93DF93DE
:1026F00000D000D01F92CDB7DEB76C0185E0F601A7
:10270000DE01119601900D928A95E1F7F601208184
:10271000918143815481452B39F09F3F19F481E029
:102720002F3F19F080E001C081E080FDB9C0F601C3
:10273000F280E580E2948FE0E82229839A83898100
:102740009A810E948B1B8C010E948A1B0E949C1AFA
:10275000E12FE295EF708E2F90E0FC01EE54FC4EDD
:102760000C940F2AC213C213FA13FA137F14B21473
:1027700050145014C9145014AD15AD15481650140A
:1027800050145D16812F807F1F70882311F01295E1
:10279000107FFF20B9F0112329F0812F0E94811CA6
:1027A0000E94A81C802F0F900F900F900F900F90F9
:1027B000DF91CF911F910F91FF90EF90DF90CF901D
:1027C0000C94F611802F0E94F812112309F468C0AE
:1027D000812F0E94871C0F900F900F900F900F90E9
:1027E000DF91CF911F910F91FF90EF90DF90CF90ED
:1027F0000C94A81C812F807F1F70803211F01295DD
:10280000107F002379F0013009F458C0FF2009F44B
:1028100064C0EE2059F0F601858180FFC3CF8F7030
:10282000858304C0FF2029F1E11010C0812F0F9093
:102830000F900F900F900F90DF91CF911F910F91FC
:10284000FF90EF90DF90CF900C946213F1E0812F16
:10285000EF12EDCF0F900F900F900F900F90DF9130
:10286000CF911F910F91FF90EF90DF90CF900C943C
:10287000921CE11012C00E94951C812F0F900F90A6
:102880000F900F900F90DF91CF911F910F91FF90BC
:10289000EF90DF90CF900C94691381E0E812EBCFBA
:1028A0000F900F900F900F900F90DF91CF911F918D
:1028B0000F91FF90EF90DF90CF900895FF2049F0A7
:1028C000E5E0EE1568F30E946A1C812309F4AECF9F
:1028D000D4CFF4E0FE1520F3D0CFEE2071F2802F9C
:1028E0000F900F900F900F900F90DF91CF911F914D
:1028F0000F91FF90EF90DF90CF900C94F812812F02
:10290000869586958370A9F0813051F6FF2039F1C4
:10291000C80193700F900F900F900F900F90DF9160
:10292000CF911F910F91FF90EF90DF90CF900C947B
:102930007210FF2089F0C80193700F900F900F90D4
:102940000F900F90DF91CF911F910F91FF90EF901B
:10295000DF90CF900C94451080E090E0EECF80E0C7
:1029600090E0D8CF802FFF2089F00E9491210F9016
:102970000F900F900F900F90DF91CF911F910F91BB
:10298000FF90EF90DF90CF900C947D220E94F92170
:10299000EECF812F837009F06CC0F11081CF202F12
:1029A000229526952770220F220F602F6F70C62E5A
:1029B000D12CE12CF12C022E04C0CC0CDD1CEE1C21
:1029C000FF1C0A94D2F704FF2AC06FE070E080E099
:1029D00090E004C0660F771F881F991F2A95D2F7D1
:1029E0006095709580959095169516951370123098
:1029F000D1F060F56C297D298E299F29113051F184
:102A00000F900F900F900F900F90DF91CF911F912B
:102A10000F91FF90EF90DF90CF900C94B11A60E08F
:102A200070E0CB01E1CF6C297D298E299F290F9081
:102A30000F900F900F900F90DF91CF911F910F91FA
:102A4000FF90EF90DF90CF900C94C31A0E94B11AC0
:102A5000C701B6010F900F900F900F900F90DF916C
:102A6000CF911F910F91FF90EF90DF90CF900C943A
:102A70009F1AFF2009F445C0812F8170882309F433
:102A80000FCF202F229526952770220F220F602F1F
:102A90006F70C62ED12CE12CF12C022E04C0CC0C70
:102AA000DD1CEE1CFF1C0A94D2F704FF2CC06FE063
:102AB00070E080E090E004C0660F771F881F991FC8
:102AC0002A95D2F7609570958095909516951695F4
:102AD00013701230E1F070F56C297D298E299F2941
:102AE000113061F10F900F900F900F900F90DF91C8
:102AF000CF911F910F91FF90EF90DF90CF900C94AA
:102B0000661B8695BBCF60E070E0CB01DFCF6C2900
:102B10007D298E299F290F900F900F900F900F9075
:102B2000DF91CF911F910F91FF90EF90DF90CF90A9
:102B30000C94781B0E94661BC701B6010F900F9082
:102B40000F900F900F90DF91CF911F910F91FF90F9
:102B5000EF90DF90CF900C94541B003F09F444C0D9
:102B600058F480E4800F803210F1FF2009F48DC00A
:102B7000EE2009F457C016CE023F09F464C008F4F1
:102B80004FC0033F91F7FF2009F470C0812F8F7170
:102B90000F900F900F900F900F90DF91CF911F919A
:102BA0000F91FF90EF90DF90CF900C94DA1AF02FF6
:102BB000F071EF2E812F8F71FF2059F00E94EF1AD4
:102BC000EE2021F0802F8295807F31CE802F8F7074
:102BD0002ECE0E94101BEE2021F0802F8295807F48
:102BE0004DCE802F8F704ACEFF20A9F084E08E1545
:102BF00008F456CE812F8F710F900F900F900F9089
:102C00000F90DF91CF911F910F91FF90EF90DF9088
:102C1000CF900C94331BE5E0EE1508F441CEEACFDB
:102C2000FF2099F0812F8F710F900F900F900F90D0
:102C30000F90DF91CF911F910F91FF90EF90DF9058
:102C4000CF900C94EF1AFF2069F3812F8F710F90B2
:102C50000F900F900F900F90DF91CF911F910F91D8
:102C6000FF90EF90DF90CF900C94101B0F900F907F
:102C70000F900F900F90DF91CF911F910F91FF90C8
:102C8000EF90DF90CF900C94D51AEE20F1F227CE82
:102C9000412F4F70602FC6010E94A21E0F900F900F
:102CA0000F900F900F90DF91CF911F910F91FF9098
:102CB000EF90DF90CF900C94EF19412F4F70602F61
:102CC000C6010F900F900F900F900F90DF91CF9152
:102CD0001F910F91FF90EF90DF90CF900C94A51E65
:102CE0000E948F1C0E945C1C0E94A81C0E94AD23A5
:102CF0000E947D2280E090E00E94451080E090E0FC
:102D00000C9472100E947E1C0C9470160E948B1BF7
:102D1000292F22952F702C3038F42A30C8F42250F5
:102D2000223050F080E008952C3011F02F30D1F790
:102D300093FB882780F90895853A30F4843010F4A5
:102D4000823030F481E0089590E2980F9830D0F30B
:102D5000883E30F4803EB0F78450813A18F7F2CFC5
:102D6000803F01F7EFCFCF93DF9300D000D01F92C9
:102D7000CDB7DEB70F900F900F900F900F90DF91AF
:102D8000CF910895CF93DF9300D000D000D0CDB77E
:102D9000DEB726960FB6F894DEBF0FBECDBFDF912B
:102DA000CF9108951F93CF93DF93C091870116E0D1
:102DB00080918801C81304C0DF91CF911F910895BD
:102DC000D0E01C9FF0011D9FF00D1124E757FE4F2E
:102DD0004081518162817381848195810E94C216F4
:102DE0002196C770E5CF4091B9015091BA01609129
:102DF000BB017091BC018091BD019091BE010C940A
:102E0000C2161F93CF93DF938091BE0182958F707E
:102E1000D1F48091BB018823B1F080918701D091DA
:102E20008801B091B901C091BA014091BC015091A3
:102E3000BD01A1E0BF3F09F0A0E0BA016095709527
:102E400016E08D1304C0DF91CF911F9108954115B5
:102E50005105D9F1CF3FD9F120E090E020FD3CC0F1
:102E6000189FF001199FF00D1124E757FE4F2181A3
:102E70002C1332C020812B132FC0228121112CC092
:102E8000238134812417350720F1241B350B283C7E
:102E9000310510F52091BE012F7020612093BE01F5
:102EA00026E0289FF001299FF00D1124E257FE4FE4
:102EB00080818F708061808389EB91E00E94701324
:102EC000DF91CF911F910C94D21621E0C6CF2A2F0B
:102ED000C4CF260F371FDBCF01968770B2CFAF92DA
:102EE000BF92CF92DF92EF92FF920F931F93CF93F7
:102EF000DF93CDB7DEB761970FB6F894DEBF0FBE94
:102F0000CDBF8C0185E0F801DE011D9601900D9288
:102F10008A95E1F7D8014C9111965C911197129620
:102F2000EC903091B9016091BA018091BC0190910F
:102F3000BD01009739F06F3F19F421E03F3F19F0D0
:102F400020E001C021E0B22FB170BB2E20FD90C166
:102F5000F801C380D480A090BB01AA2009F432C13B
:102F60002091BE01C816D90610F1D601A81BB90BD5
:102F7000CD01FF24F394883C9105F0F0F12C207FE3
:102F800009F0E9C07C2DD98AC88A6E2D89890E94F2
:102F9000B31689EB91E00E947013E9EBF1E086E053
:102FA000DF011D928A95E9F70E94F3161EC08095F5
:102FB00090958C0D9D1DDDCF822F807F09F084C000
:102FC000651325C0341323C0FE2CE11020C02F70E0
:102FD00020612093BE010E94F31689EB91E00E94CC
:102FE00070138091BE01F80185838F2D61960FB615
:102FF000F894DEBF0FBECDBFDF91CF911F910F912F
:10300000FF90EF90DF90CF90BF90AF900895CD28C4
:1030100039F05F3F19F481E04F3F19F080E001C0C3
:1030200081E080FD24C081E08E25F82FF170FF2E15
:1030300080FF3FC0809187012091880136E0821394
:1030400018C04D875E878D859E850E948B1B292F1A
:1030500022952F70223008F1243030F59F7009F14D
:10306000D80115969C91907FE1F4FB2CBECF80E0B7
:10307000DCCF90E0389FF001399FF00D1124E75725
:10308000FE4F6181561306C06081641303C06281E4
:10309000E6120FC001968770D2CF9F7011F088237F
:1030A00021F3805E883008F3C8010E947013BF2CA2
:1030B000DCCFFE2CEE2009F498CF8091BE01816018
:1030C0008093BE01F12C91CF651314C0341312C04C
:1030D000E11010C08091BE01F8018583C8010E94F3
:1030E000701386E0F801A9EBB1E001900D928A958A
:1030F000E1F75ACF4D875E878D859E850E948616A3
:10310000882309F4BFC0EE2009F4BCC02091BE01A1
:10311000822F82958F7090E0029774F08091B901B0
:103120009091BA0198878F831986DB86CA862C878F
:10313000CE0107960E94701386E0F801A9EBB1E07A
:1031400001900D928A95E1F70E9401170E94F316F3
:10315000FF24F3944ACF651314C0341312C0E11056
:1031600010C08091BE01F8018583C8010E947013D0
:1031700086E0E9EBF1E0DF011D928A95E9F7FA2C90
:1031800034CF4D875E878D859E850E948616882365
:1031900009F478C0EE2009F475C02091BE01822F99
:1031A00082958F7090E002973CF28091B9019091E6
:1031B000BA019A8389831B82DD82CC822E83CE0161
:1031C0000196B8CFC816D90680F0F601E81BF90BB6
:1031D000CF01883C910570F0F12C7C2DD98AC88AEA
:1031E0006E2D89890E94B316D8CE809590958C0D4E
:1031F0009D1DEFCFFE2CEE2009F444C0651327C0BF
:10320000341325C08091BE0180FD18C0982F92957F
:103210009F70292F30E02115310581F0D8011596D6
:103220008C9315972F30310509F458CF9F5F9295F5
:10323000907F8F70892B15968C9350CF86E0F80184
:10324000A9EBB1E001900D928A95E1F7CECE4D87C2
:103250005E878D859E850E94861681116DCF809137
:10326000BE0181608093BE01C8010E947013BDCE73
:10327000EE2041F04D875E878D859E850E948616E3
:1032800081115ACFC8010E94701362CF1F93CF9350
:10329000DF93CDB7DEB72C970FB6F894DEBF0FBE25
:1032A000CDBF4F83588769877A878B879C87CE01EC
:1032B00007960E946F17882349F19F8188852A8588
:1032C0003B85232B39F08F3F19F481E09F3F19F0A4
:1032D00080E001C081E080FD08C04F81588569858C
:1032E0007A858B859C850E94C21616E080918701A5
:1032F00090918801891343C02C960FB6F894DEBFD5
:103300000FBECDBFDF91CF911F91089586E0FE01E2
:103310003796DE01119601900D928A95E1F79F8113
:1033200088852A853B85232B39F08F3F19F481E06E
:103330009F3F19F080E001C081E080FDD6CF209151
:10334000880130E0C9010196877099274091870173
:1033500050E084179507A9F196E0929FD001939FC2
:10336000B00D1124A757BE4FFE01319601900D926A
:103370009A95E1F7809388010E94D216B6CF819F7B
:10338000C001112487579E4F0E946F17882309F4AC
:10339000B3CFE09187011E9FF0011124E757FE4F44
:1033A0004081518162817381848195810E94C2161E
:1033B0008091870190E0019687709927809387011B
:1033C00095CF0E9482161092880110928701E9EB36
:1033D000F1E086E0DF011D928A95E9F78DCFDF925B
:1033E000EF92FF920F931F93CF93DF938C01892B62
:1033F000B1F0E12CF12CDD24D394E8012196F80101
:103400008491853709F469C090F4843708F057C077
:10341000843008F06EC0813009F18230D9F1DF913B
:10342000CF911F910F91FF90EF90DF900895883713
:1034300009F45CC058F4863709F454C0873779F72B
:103440008E2D0E947B1C0E94A81C1FC09CE7980F19
:10345000903728F78F770E94F81217C00E5F1F4F22
:10346000FE01849190E2980F983060F48770FD2DF2
:1034700001C0FF0F8A95EAF78F2F0E94811C0E94DE
:10348000A81C02C00E94F611E8018F2D811134C0E2
:103490008E01B3CF0E5F1F4FFE01849190E2980F13
:1034A000983050F48770FD2D01C0FF0F8A95EAF720
:1034B0008F2F0E94871CE3CF0E94F812E5CF0E5F8A
:1034C0001F4FFE01C491CC23F9F28FE99FE00197D1
:1034D000F1F700C00000C150F6CF0E5F1F4FFE0194
:1034E000F490D2CF0E946A1CE82ECFCF0E947E1C9F
:1034F000AACF0E94F611C9CFEFE9FFE03197F1F7AB
:1035000000C000008150C2CF6093C3017093C4011A
:103510008093C5019093C6010E940E1D0C947016F5
:103520006093BF017093C0018093C1019093C20169
:103530000E940F1D0C94701608950C94841A0F931A
:103540001F930091C3011091C4012091C5013091D6
:10355000C601602B712B822B932B1F910F910C9422
:10356000841A0F931F930091C3011091C4012091FD
:10357000C5013091C60160237123822393231F91DB
:103580000F910C94841A0F931F930091C301109113
:10359000C4012091C5013091C6016027712782279F
:1035A00093271F910F910C94841A60E070E0CB0177
:1035B0000C94901A0F931F9341E050E060E070E08C
:1035C0008A019B0104C0000F111F221F331F8A951F
:1035D000D2F7C901B8011F910F910C94901A0F9363
:1035E0001F9341E050E060E070E004C0440F551FBD
:1035F000661F771F8A95D2F78091BF019091C00115
:10360000A091C101B091C2018A019B01082B192B25
:103610002A2B3B2BC901B8011F910F910C94901AD2
:103620000F931F9341E050E060E070E004C0440F4E
:10363000551F661F771F8A95D2F7CB01BA01609597
:103640007095809590950091BF011091C0012091D7
:10365000C1013091C20160237123822393231F9102
:103660000F910C94901A0F931F9341E050E060E08B
:1036700070E004C0440F551F661F771F8A95D2F76C
:103680008091BF019091C001A091C101B091C20190
:103690008A019B01082719272A273B27C901B8015E
:1036A0001F910F910C94901A0F931F930091BF01DB
:1036B0001091C0012091C1013091C201602B712B8A
:1036C000822B932B1F910F910C94901A0F931F93A1
:1036D0000091BF011091C0012091C1013091C20140
:1036E00060237123822393231F910F910C94901ACE
:1036F0000F931F930091BF011091C0012091C10150
:103700003091C20160277127822793271F910F9163
:103710000C94901A0895CF92DF92EF92FF920F933C
:103720001F93CF93DF938C01C090BF01D090C00155
:10373000E090C101F090C2018091C3019091C40159
:10374000A091C501B091C601C82AD92AEA2AFB2A4C
:10375000CFE1D0E0D701C6010C2E04C0B695A795E5
:10376000979587950A94D2F780FF10C0B8018C2FE7
:103770000E94BF1E8130910549F0DF91CF911F91CA
:103780000F91FF90EF90DF90CF900895219710F761
:10379000B80180E00E94BF1EF0CF90910B019923E9
:1037A00061F190910C01992341F1982F969596958E
:1037B00096959F3189F0E0910D01F0910E01E90F8E
:1037C000F11D877021E030E001C0220F8A95EAF7F1
:1037D0008181822B818308959091EA0190FF22C01C
:1037E0001F928F9381E094E09F938F930E94D8065D
:1037F0000F900F900F900F90089520910D01309130
:103800000E01F90132969FEF40E05191851751F07A
:103810009F3F19F4511101C0942F4F5F4E31A9F70A
:103820009F3F09F40895290F311D97FD3A95F9013D
:103830008283089590910B01992371F190910C016D
:10384000992351F1982F9695969596959F3199F0D9
:10385000E0910D01F0910E01E90FF11D282F277065
:1038600081E090E001C0880F2A95EAF78095918168
:103870008923818308959091EA0190FF1CC01F92D3
:103880008F9383EE93E09F938F930E94D8060F90BF
:103890000F900F900F900895E0910D01F0910E019F
:1038A0009F01225E3F4F9281891301C0128231969F
:1038B000E217F307C1F7089581E090E0E0910D0170
:1038C000F0910E01E80FF91F1082019680329105E8
:1038D000A9F708958091E90108959091E901892B54
:1038E0008093E9010895982F90958091E9018923AB
:1038F0008093E90108958093E90108951092E90108
:1039000008959091E801892B8093E8010895982FFC
:1039100090958091E80189238093E80108951092A1
:10392000E80108958093C70108951092C701089592
:1039300020910D0130910E01F9013196205E3F4F2B
:1039400080E0919191118F5FE217F307D1F708950D
:10395000E0910D01F0910E018091E9018083E091E9
:103960000D01F0910E0180819091E801892B8083F7
:103970009091C701992361F0E0910D01F0910E0142
:103980008081892B80830E94981C81111092C7012D
:1039900080910D0190910E010C94F20F90933B01D8
:1039A00080933A010895829590E09C01220F331F85
:1039B000220F331F2C7C959587959595879583735A
:1039C000282B30E0C901880F991F8A7A35952795F1
:1039D0002575822B0895CF93DF93D92F0E94D31C96
:1039E000C82F8D2F0E94D31C2C2F30E0322F22277E
:1039F000A901482BCA01DF91CF9108950895CF9373
:103A0000DF9300D000D01F92CDB7DEB70F900F909C
:103A10000F900F900F90DF91CF9108950895089522
:103A20000C94771108958091FF01843021F1109258
:103A3000EB0120E488E190E00FB6F894A89580931C
:103A400060000FBE2093600083B7817F846083BFD6
:103A500083B7816083BF7894889583B78E7F83BF57
:103A60000FB6F894A89580916000886180936000FB
:103A7000109260000FBE0895CF930E94AF110E9474
:103A800006070E94B011C0E08C2F0E942608892BE7
:103A900031F4CF5FC530C1F780E0CF91089581E068
:103AA000FCCF0E9479110C9482161F920F920FB6D0
:103AB0000F9211248F939F93AF93BF938091EB014B
:103AC000811113C08091EC019091ED01A091EE0164
:103AD000B091EF014196A11DB11D8093EC0190932F
:103AE000ED01A093EE01B093EF01BF91AF919F91D3
:103AF0008F910F900FBE0F901F90189582E084BD9C
:103B000093E095BD9AEF97BD80936E0008952FB70F
:103B1000F8948091EC019091ED01A091EE01B091AB
:103B2000EF012FBF08952FB7F8946091EC017091C9
:103B3000ED018091EE019091EF012FBF0895CF929A
:103B4000DF92EF92FF920F931F932FB7F89440915B
:103B5000EC015091ED016091EE017091EF012FBFEA
:103B60006A017B01EE24FF248C0120E030E0C016C6
:103B7000D106E206F30650F0481B590BCA011F910B
:103B80000F91FF90EF90DF90CF9008954150510931
:103B9000F3CF1F920F920FB60F9211248F939F9322
:103BA000AF93BF938091EC019091ED01A091EE0154
:103BB000B091EF010196A11DB11D8093EC0190938E
:103BC000ED01A093EE01B093EF01BF91AF919F91F2
:103BD0008F910F900FBE0F901F9018950E94000DAF
:103BE000F8942FEF87EA91E6215080409040E1F76A
:103BF00000C0000087E090EBDC0180930902909305
:103C00000A02A0930B02B0930C029CE088E10FB66D
:103C1000F894A895809360000FBE90936000FFCF4A
:103C20008D3B60F4883A90F5853A18F58430F8F4C5
:103C3000813009F484C080E090E00895883E90F4DB
:103C4000803EA8F48F3BB9F70E9482162FEF80E7E1
:103C500092E0215080409040E1F700C000000E94B7
:103C6000EE1DE9CF803F38F390E09065089590E035
:103C70000895853A39F0863A39F033E820E4832F05
:103C8000922F089531E8FACF32E8F8CF883A59F107
:103C9000893A59F18A3A59F18B3A59F18C3A59F1EA
:103CA0008D3A59F18E3A59F18F3A59F1813B59F1D8
:103CB000803B59F1823B59F1833B61F1843B61F1D7
:103CC000853B61F1863B61F1873B69F1883B69F196
:103CD000893B69F18A3B69F18B3B69F18C3B69F166
:103CE00030E024E4CCCF32EEFCCF39EEFACF3AEE1E
:103CF000F8CF35EBF6CF36EBF4CF33EBF2CF34EB36
:103D0000F0CF37EBEECF3CECECCF3DECEACF33E835
:103D100025E4B5CF3AE8FCCF32E9FACF34E9F8CF61
:103D200031E226E4ACCF33E2FCCF34E2FACF35E225
:103D3000F8CF36E2F6CF37E2F4CF3AE2F2CF81E0C5
:103D400090E0089580E090E008950895E62FF0E077
:103D50009FE0799FE00DF11D11249BE4899FE00D08
:103D6000F11D1124E255FF4F84910895E82FF0E0F2
:103D7000EE0FFF1FE45DF0408591949108950E943D
:103D8000A61E803ED8F4803C90F5813309F454C0DF
:103D900048F4893209F44AC08A3209F453C00E94B7
:103DA000101E0895893331F1823821F18533B9F736
:103DB0008091080285FF3EC089E2F1CF833E41F148
:103DC00060F4803EE9F0823E51F78091080282FF64
:103DD00023C084FF1BC080E0E2CF863EF9F0873E1F
:103DE000F1F68091080283FF1DC086EED8CF0E94B5
:103DF000B61E089590910802937089F280EECFCF9D
:103E00008091080280FFFACF89E3C9CF83EEC7CF44
:103E10008091080282FFDDCF82EEC1CF809108023F
:103E200083FFE3CF84FDD7CF87EEB9CF809108021F
:103E300085FFC2CF85E3B3CF8091080286FF06C01D
:103E40008AE2ADCF8091080286FFFACF81E3A7CF47
:103E5000BF92CF92DF92EF92FF920F931F93CF9377
:103E6000DF93EC01B12C01E010E08B2D0E942608BD
:103E70007C01C12CD12CC8010C2C02C0880F991FC9
:103E80000A94E2F78E219F21892BF1F06C2D7B2D76
:103E900080E00E94BF1E8C179D0759F0292F207EBD
:103EA000392F307C11F0203A79F490E0C817D90707
:103EB00059F481E0DF91CF911F910F91FF90EF9026
:103EC000DF90CF90BF9008958FEFC81AD80A8FE087
:103ED000C816D10481F6B39485E0B812C6CF80E04D
:103EE000E9CFCF93DF93EC018CE290E00E94281F92
:103EF000882329F0CE01DF91CF910C94281F80E018
:103F0000DF91CF910895CF930E94EC20811102C0E0
:103F10000E94D22086E294E00E943F06C5E6C1508E
:103F200009F008C18FE194E00E943F0689E290E029
:103F30000E94711F811134C18AE290E00E94711FBA
:103F400081110E94D22085E090E00E94711F8111B2
:103F50000E94EE1D0E94121D0E94F7208093EA012C
:103F600087E090E00E94711F882391F08BE190E040
:103F70000E94711F882309F4E6C08091EA0181FB49
:103F8000992790F921E0922790FB81F98093EA012B
:103F90008091EA010E94FB200E940921809308027F
:103FA00080EE90E00E94711F882341F0809108020A
:103FB000982F909590FB80F98093080289E390E018
:103FC0000E94711F882359F08091080281FB992774
:103FD00090F921E0922790FB81F98093080282EE0C
:103FE00090E00E94711F882359F08091080282FBA3
:103FF000992790F921E0922790FB82F9809308029B
:1040000086EE90E00E94711F882359F0809108028B
:1040100083FB992790F921E0922790FB83F9809305
:10402000080283EE90E00E94711F882359F080916E
:10403000080284FB992790F921E0922790FB84F9EC
:104040008093080285E390E00E94711F882359F055
:104050008091080285FB992790F921E0922790FB37
:1040600085F98093080281E390E00E94711F882304
:1040700059F08091080286FB992790F921E0922758
:1040800090FB86F98093080281E190E00E94711F05
:10409000882359F08091080287FB992790F921E045
:1040A000922790FB87F980930802809108020E9472
:1040B0000D218091080287FB882780F980930C01ED
:1040C00087E290E00E94711FC82F8EE190E00E946D
:1040D000711F8111C2608FE190E00E94711F8111F8
:1040E000C46080E290E00E94711F8111C86081E28B
:1040F00090E00E94711F8111C06182E290E00E94F5
:10410000711F8111C06283E290E00E94711F8111D2
:10411000C06484E290E00E94711F8823D9F1C068D6
:104120008C2F0E9404216C2F70E080E090E0CF91F2
:104130000C949D1A0E9406078FE39CE90197F1F702
:1041400000C00000ECCE8EE090E00E94711F88233A
:1041500051F08091EA0182FB992790F921E09227A2
:1041600090FB82F913CF80E190E00E94711F909143
:10417000EA01882351F093FB882780F921E0822708
:1041800080FB93F99093EA0103CF892F809580FB00
:1041900090F9F8CFC111C4CF0E940021682FC4CF7D
:1041A000CF9108956DEE7EEF80E090E00E94452A69
:1041B00060E082E090E00E94372A60E083E090E0D7
:1041C0000E94372A60E084E090E00E94372A60E095
:1041D00085E090E00C94372A80E090E00E94312A3C
:1041E00021E08D3E9E4F09F020E0822F089582E06D
:1041F00090E00C94292A682F82E090E00C94372AF2
:1042000083E090E00C94292A682F83E090E00C94DE
:10421000372A84E090E00C94292A682F84E090E00B
:104220000C94372A8091F20180FF12C06091120134
:1042300085E0689FB0011124759567957595679520
:1042400060387105A8F56115710581F581E0089563
:1042500081FF09C06091120185E0689FB0011124BF
:1042600075956795EDCF82FF07C06091120185E0DB
:10427000689FB0011124E4CF9091F3019923A1F03C
:1042800060911101961788F72091120185E0289F0F
:1042900090011124929FA001939F500D112470E072
:1042A000CA010E94FB29CCCF65E070E0862F0895FB
:1042B0008FE708958091F20180FF0CC0609110019A
:1042C00070E075956795759567956115710539F578
:1042D00081E0089581FF06C06091100170E075953E
:1042E0006795F3CF82FF08C06091100170E06038DD
:1042F000710558F38FE708958091F301882369F0E1
:1043000060910F01861780F790911001899FC0017D
:10431000112470E00E94FB29EACF61E070E0862F53
:104320000895803F31F40E94122181958093F60117
:104330000895813F19F40E941221F8CF823F31F491
:104340000E94122181958093F5010895833F19F40D
:104350000E941221F8CF893F29F40E945A218093AC
:10436000F70108958A3F21F40E945A218195F7CFE1
:104370008B3F31F40E945A2181958093F801089572
:104380008C3F19F40E945A21F8CF843F31F4809178
:10439000F40181608093F4010895853F21F48091B8
:1043A000F4018260F7CF863F21F48091F4018460AC
:1043B000F1CF873F21F48091F4018860EBCF883FF3
:1043C00021F48091F4018061E5CF8D3F31F480913B
:1043D000F20181608093F20108958E3F21F4809173
:1043E000F2018260F7CF8F3FB9F78091F2018460CC
:1043F000F1CF803FC1F48091F60187FD1092F60164
:104400008091F50181110EC08091F60181110AC0E1
:104410008091F701811106C08091F801811102C0DD
:104420001092F3010895813F29F48091F601181646
:104430002CF3E6CF9091F501823F29F497FFE0CF6E
:104440001092F501DDCF833F19F41916CCF3D8CFC4
:10445000893F39F48091F701181694F61092F7010C
:10446000CFCF8A3F29F48091F70187FFC9CFF6CFDC
:104470008B3F39F48091F80187FFC2CF1092F80189
:10448000BFCF8C3F29F48091F8011816BCF3B8CF48
:10449000843F31F48091F4018E7F8093F401B0CF9A
:1044A000853F21F48091F4018D7FF7CF863F21F481
:1044B0008091F4018B7FF1CF873F21F48091F4014B
:1044C000877FEBCF883F21F48091F4018F7EE5CF89
:1044D0008D3F31F48091F2018E7F8093F20190CF75
:1044E0008E3F21F48091F2018D7FF7CF8F3F09F04D
:1044F00087CF8091F2018B7FF0CF8091EA0183FF1B
:104500007EC082E694E00E943F068091F4011F92F3
:104510008F938DE594E09F938F930E94D8068BE54F
:1045200094E00E943F068091F501282F082E000C90
:10453000330B3F938F9388E594E09F938F930E9472
:10454000D80686E594E00E943F068091F601282F68
:10455000082E000C330B3F938F9383E594E09F93D9
:104560008F930E94D80681E594E00E943F068091D7
:10457000F701282F082E000C330B3F938F938EE406
:1045800094E09F938F930E94D8068CE494E00E945D
:104590003F068091F801282F082E000C330B3F9323
:1045A0008F9389E494E09F938F930E94D80686E4CA
:1045B00094E00E943F068091F3011F928F9383E461
:1045C00094E09F938F930E94D80681E494E00E9428
:1045D0003F068091F2011F928F938EE394E09F93A8
:1045E0008F930E94D8068BE394E00E943F068DB71C
:1045F0009EB74C960FB6F8949EBF0FBE8DBF84EF4A
:1046000091E00E943A100E94871D9093F1018093DF
:10461000F00108951F93CF93DF938091F001909163
:10462000F1010E949F1DAC019091F3019923D1F0FB
:104630002091130130E04217530780F08091F5017B
:10464000C091F601D091F7011091F801811111C0CC
:10465000C1117FC0D1117DC011117BC0DF91CF91FD
:104660001F910895209114018AE0289F9001112440
:10467000E2CF9F3F19F09F5F9093F301181624F447
:104680000E9412218093F5018091F50187FF05C0FA
:104690000E94122181958093F5011C1624F40E943A
:1046A00012218093F6018091F60187FF05C00E94D8
:1046B000122181958093F6016091F501662331F115
:1046C000C091F601CC2311F1062E000C770B880B5C
:1046D000990B0E94F62823E333E343E35FE30E9450
:1046E0005A290E94BE286093F5016C2FCC0F770BDE
:1046F000880B990B0E94F62823E333E343E35FE33F
:104700000E945A290E94BE286093F6011D1624F4C7
:104710000E945A218093F7018091F70187FF05C01D
:104720000E945A2181958093F701111624F40E946A
:104730005A218093F8018091F80187FF05C00E94FB
:104740005A2181958093F801DF91CF911F910C94AC
:104750007D229F3F09F08FCFA0CFE4EFF1E085E00D
:10476000DF011D928A95E9F71092F3011092F20190
:10477000089585E896E00E943F061F9281E08F939E
:104780001F9285E08F9387E396E09F938F930E941B
:10479000D8060F900F900F900F900F900F900895E4
:1047A000833009F445C028F4813061F0823049F14A
:1047B0000895853009F46AC008F451C0863009F4C0
:1047C0007CC0089580911401262F30E0280F311D00
:1047D0002F3F310594F4680F609314018091140108
:1047E0001F928F9380E795E09F938F930E94D80646
:1047F0000F900F900F900F9008958FEF80931401FA
:10480000EDCF80911301262F30E0280F311D2F3F6F
:10481000310554F4680F60931301809113011F92C6
:104820008F938EE595E0E0CF8FEF80931301F5CF66
:1048300080911201262F30E0280F311D2F3F3105C6
:1048400054F4680F60931201809112011F928F93AC
:104850008BE495E0C9CF8FEF80931201F5CF809163
:104860001101262F30E0280F311D2F3F310554F460
:10487000680F60931101809111011F928F9386E35D
:1048800095E0B2CF8FEF80931101F5CF80911001A9
:10489000262F30E0280F311D2F3F310554F4680FCB
:1048A00060931001809110011F928F938DE195E02C
:1048B0009BCF8FEF80931001F5CF20910F01862FB2
:1048C00090E0820F911D8F3F910554F4620F609329
:1048D0000F0180910F011F928F9382E095E084CFAA
:1048E0008FEF80930F01F5CF8330C9F128F4813029
:1048F00061F0823019F10895853009F452C008F44E
:104900003FC0863009F45EC0089580911401681795
:1049100090F4861B80931401809114011F928F9351
:1049200083EF94E09F938F930E94D8060F900F908F
:104930000F900F90089510921401EECF8091130103
:10494000681750F4861B80931301809113011F9206
:104950008F9381EE94E0E6CF10921301F6CF809111
:104960001201681750F4861B809312018091120186
:104970001F928F938EEC94E0D5CF10921201F6CF58
:1049800080911101681750F4861B8093110180916A
:1049900011011F928F9389EB94E0C4CF1092110103
:1049A000F6CF80911001681750F4861B8093100198
:1049B000809110011F928F9380EA94E0B3CF109200
:1049C0001001F6CF80910F01681750F4861B809379
:1049D0000F0180910F011F928F9385E894E0A2CF81
:1049E00010920F01F6CFCF93C82F1F928F938AE8B2
:1049F00097E09F938F930E94D80661E070E080E07B
:104A000090E004C0660F771F881F991FCA95D2F7E0
:104A10000E949D1A0F900F900F900F90CF910C94C1
:104A20008216CF938B3109F4DAC108F04DC08E3075
:104A300009F4E8C1B8F4873009F4BAC148F4863003
:104A400009F4A4C18EE999E00E943F06C0E03FC28C
:104A5000883009F46BC08B30A9F786EB97E00E9491
:104A60003F0692C1813109F424C290F4803151F79C
:104A70008091EA0183FB992790F921E0922790FB2E
:104A800083F98093EA0183FFD0C184E59BE0A1C153
:104A9000863109F4CDC18931A9F688E39BE00E94F3
:104AA0003F068AE09BE00E943F0688EC9AE00E9465
:104AB0003F0681EA9AE00E943F068CE59AE00E9458
:104AC0003F0681E39AE0CBCF853361F078F48732FB
:104AD00049F028F48E3108F4B5CF8D5104C08932E5
:104AE00009F0B0CF80E00E94F3244EC1833438F443
:104AF0008A3308F0F2C1883309F4AFCFA3CF8334EF
:104B000089F3883409F09ECF0E94821683EB9BE0E4
:104B10000E943F069FEF23ED80E3915020408040AC
:104B2000E1F700C000000E94EE1D2EC188EC9BE062
:104B30000E943F068EE899E00E943F060E940021F5
:104B40001F928F938BE899E09F938F930E94D806D2
:104B500089E899E00E943F060E94F720C82F86E767
:104B600099E00E943F061F92CF9381E799E09F93BF
:104B70008F930E94D8068FE699E00E943F0685E653
:104B800099E00E943F068C2F81701F928F9382E6DE
:104B900099E09F938F930E94D80680E699E00E9447
:104BA0003F0686E599E00E943F06C1FB882780F911
:104BB0001F928F9383E599E09F938F930E94D8066D
:104BC00081E599E00E943F0685E499E00E943F0656
:104BD000C2FB882780F91F928F9382E499E09F930C
:104BE0008F930E94D80680E499E00E943F0687E3F5
:104BF00099E00E943F06C3FBCC27C0F91F92CF93D8
:104C000084E399E09F938F930E94D80682E399E012
:104C10000E943F060E940921C82F8EE199E00E9460
:104C20003F061F92CF9389E199E09F938F930E9453
:104C3000D80687E199E00E943F068EEF98E00E9437
:104C40003F068C2F81701F928F938BEF98E09F937C
:104C50008F930E94D8068DB79EB780960FB6F894B2
:104C60009EBF0FBE8DBF89EF98E00E943F0682EE87
:104C700098E00E943F06C1FB882780F91F928F931E
:104C80008FED98E09F938F930E94D8068DED98E06A
:104C90000E943F068BEC98E00E943F06C2FB8827EB
:104CA00080F91F928F9388EC98E09F938F930E94D6
:104CB000D80686EC98E00E943F0684EB98E00E94BC
:104CC0003F06C3FB882780F91F928F9381EB98E002
:104CD0009F938F930E94D8068FEA98E00E943F0628
:104CE00085EA98E00E943F06C4FB882780F91F925E
:104CF0008F9382EA98E09F938F930E94D80680EA70
:104D000098E00E943F068EE898E00E943F06C5FBAF
:104D1000882780F91F928F938BE898E09F938F9359
:104D20000E94D80689E898E00E943F068DE698E048
:104D30000E943F06C6FB882780F91F928F938AE660
:104D400098E09F938F930E94D80688E698E00E948F
:104D50003F0680E698E00E943F06C7FBCC27C0F9DB
:104D60001F92CF938DE598E09F938F930E94D80672
:104D70008BE598E00E943F068DB79EB74C960FB624
:104D8000F8949EBF0FBE8DBFC1E0A1C08091EA0123
:104D9000817F8E7F8093EA018FE897E00E943F0633
:104DA00084EC9BE00E943F0681E08093FA01ECCF07
:104DB0008091EA0180FF0BC086EA9BE00E943F06DB
:104DC0008091EA01817F8E7F8093EA01DDCF8AE9BD
:104DD0009BE00E943F068091EA018160F5CF8091BF
:104DE000EA0181FB992790F921E0922790FB81F954
:104DF0008093EA0181FF03C08DE89BE0EACF8FE753
:104E00009BE02DCE8091EA0182FB992790F921E069
:104E1000922790FB82F98093EA0182FF03C080E72A
:104E20009BE0D7CF80E69BE01ACE87E49BE017CECD
:104E300083E29AE00E943F060E94E60F1F928F9342
:104E400089E09AE09F938F930E94D80680910B018E
:104E50001F928F9382EF99E09F938F930E94D806C1
:104E6000809175011F928F938FED99E09F938F939F
:104E70000E94D80680910C011F928F938CEC99E0D0
:104E80009F938F930E94D8060E94931D9F938F93A8
:104E90007F936F9385EB99E09F938F930E94D80641
:104EA0008DB79EB746960FB6F8949EBF0FBE8DBFC6
:104EB0006BCF0E948216C0910C0181E0C827C0937D
:104EC0000C01CC2339F08BEA99E00E943F068C2F2D
:104ED000CF91089580EA99E0C2CD895304CE80E055
:104EE00008950C946F27CF93C82F8091FA018130D9
:104EF000D1F038F0823009F44DC01092FA0180E010
:104F000010C0E0910D01F0910E0180818232B9F75D
:104F10008C2F0E94712781111EC08C2F0E94112599
:104F20008170CF910895E0910D01F0910E01808183
:104F3000823271F38C2F0E946F2781111BC0C43104
:104F4000D9F060F4CB3071F0C031D1F080E897E057
:104F50000E943F0613C081E090E0E2CFC93261F0C9
:104F6000C833A1F78FE897E00E943F0686E897E0F4
:104F70000E943F0681E0D4CF1092FA0180E0D0CFAA
:104F80000E94B92382E897E00E943F0682E0809366
:104F9000FA01F0CFC432C8F4CE3108F0BEC0CB3035
:104FA000E1F040F4C73009F4CFC084E296E00E94FB
:104FB0003F0626C0C331C1F1C431B9F78091F90170
:104FC000882351F11092F9010AC0CB3409F4BAC018
:104FD000C8F4C93299F3C83341F70E94B9238091CC
:104FE000F901882309F4C7C01F928F938EE196E0E0
:104FF0009F938F930E94D8060F900F900F900F9061
:1050000081E08FCFC13509F497C0C23509F48EC055
:10501000CE3459F66AE091C083E396E00E943F06E1
:1050200081E08093FA017DCF8DE096E00E943F06FB
:105030008BEF95E00E943F06809114011F928F93A1
:1050400088EF95E09F938F930E94D80686EF95E0B6
:105050000E943F0684EE95E00E943F068091130176
:105060001F928F9381EE95E09F938F930E94D806B5
:105070008FED95E00E943F0680ED95E00E943F068F
:10508000809112011F928F938DEC95E09F938F93E7
:105090000E94D8068BEC95E00E943F068AEB95E0D3
:1050A0000E943F06809111011F928F9387EB95E03C
:1050B0009F938F930E94D80685EB95E00E943F0650
:1050C00080EA95E00E943F06809110011F928F9325
:1050D0008DE995E09F938F930E94D8068BE995E028
:1050E0000E943F0684E895E00E943F0680910F01F0
:1050F0001F928F9381E895E09F938F930E94D8062B
:105100008FE795E00E943F068DB79EB748960FB691
:10511000F8949EBF0FBE8DBF62CFCE51EC2FF0E052
:10512000E15DFE4F80818093F90159CF61E080916C
:10513000F9010E94D02353CF61E08091F9010E94D0
:1051400074244DCF6AE0F3CF8EE18093140182E3A3
:10515000809313018AE08093120184E1809311010E
:1051600088E08093100188E280930F0186E296E048
:105170000E943F0634CF8BE196E019CF0E94C528EC
:105180006894B1110C94542908950E94392988F02B
:105190009F5798F0B92F9927B751B0F0E1F0660FFB
:1051A000771F881F991F1AF0BA95C9F714C0B1303C
:1051B00091F00E945329B1E008950C945329672F70
:1051C000782F8827B85F39F0B93FCCF3869577956B
:1051D0006795B395D9F73EF4909580957095619554
:1051E0007F4F8F4F9F4F0895E89409C097FB3EF47F
:1051F00090958095709561957F4F8F4F9F4F992324
:10520000A9F0F92F96E9BB279395F69587957795A1
:105210006795B795F111F8CFFAF4BB0F11F460FF61
:105220001BC06F5F7F4F8F4F9F4F16C0882311F0B9
:1052300096E911C0772321F09EE8872F762F05C0CD
:10524000662371F096E8862F70E060E02AF09A9568
:10525000660F771F881FDAF7880F9695879597F95D
:10526000089557FD9058440F551F59F05F3F71F056
:105270004795880F97FB991F61F09F3F79F08795BD
:105280000895121613061406551FF2CF4695F1DF46
:1052900008C0161617061806991FF1CF86957105D6
:1052A000610508940895E894BB2766277727CB010A
:1052B00097F908950E946D290C94DE290E94D02947
:1052C00038F00E94D72920F0952311F00C94C729BB
:1052D0000C94CD2911240C9454290E94312970F387
:1052E000959FC1F3950F50E0551F629FF001729F8B
:1052F000BB27F00DB11D639FAA27F00DB11DAA1F9A
:10530000649F6627B00DA11D661F829F2227B00DE6
:10531000A11D621F739FB00DA11D621F839FA00D71
:10532000611D221F749F3327A00D611D231F849FC1
:10533000600D211D822F762F6A2F11249F57504018
:105340009AF0F1F088234AF0EE0FFF1FBB1F661F93
:10535000771F881F91505040A9F79E3F510580F05C
:105360000C94C7290C9454295F3FE4F3983ED4F37E
:10537000869577956795B795F795E7959F5FC1F700
:10538000FE2B880F911D9695879597F9089597F9AB
:105390009F6780E870E060E008959FEF80EC0895DB
:1053A00000240A9416161706180609060895002404
:1053B0000A9412161306140605060895092E03947E
:1053C000000C11F4882352F0BB0F40F4BF2B11F4F2
:1053D00060FF04C06F5F7F4F8F4F9F4F0895991BF1
:1053E00079E004C0991F961708F0961B881F7A95DC
:1053F000C9F78095089597FB072E16F4009407D0FF
:1054000077FD09D00E94152A07FC05D03EF490953F
:1054100081959F4F0895709561957F4F0895EE0F88
:10542000FF1F0590F491E02D0994AA1BBB1B51E1CD
:1054300007C0AA1FBB1FA617B70710F0A61BB70B04
:10544000881F991F5A95A9F780959095BC01CD01A9
:105450000895F999FECF92BD81BDF89A992780B53C
:105460000895A8E1B0E042E050E00C944C2A262FC9
:10547000F999FECF1FBA92BD81BD20BD0FB6F89439
:10548000FA9AF99A0FBE019608950E94372A272F9B
:105490000C94382ADC01CB01FC01F999FECF06C03F
:1054A000F2BDE1BDF89A319600B40D9241505040E2
:0854B000B8F70895F894FFCF4E
:1054B8000530082309FE08CA0896080101C8012812
:1054C80008140A321E404D3622394203F502BF0243
:1054D8009D026402D701F001090222024202000182
:0A54E800020304050607080900008E
:00000001FF
